{
  "abi": [
    {
      "type": "constructor",
      "inputs": [],
      "stateMutability": "nonpayable"
    },
    {
      "type": "function",
      "name": "ETH_ADDRESS",
      "inputs": [],
      "outputs": [
        {
          "name": "",
          "type": "address",
          "internalType": "address"
        }
      ],
      "stateMutability": "view"
    },
    {
      "type": "function",
      "name": "FEE_EXPIRE_TIME",
      "inputs": [],
      "outputs": [
        {
          "name": "",
          "type": "uint256",
          "internalType": "uint256"
        }
      ],
      "stateMutability": "view"
    },
    {
      "type": "function",
      "name": "FEE_TIMELOCK_PERIOD",
      "inputs": [],
      "outputs": [
        {
          "name": "",
          "type": "uint256",
          "internalType": "uint256"
        }
      ],
      "stateMutability": "view"
    },
    {
      "type": "function",
      "name": "MAX_PERCENTAGE",
      "inputs": [],
      "outputs": [
        {
          "name": "",
          "type": "uint32",
          "internalType": "uint32"
        }
      ],
      "stateMutability": "view"
    },
    {
      "type": "function",
      "name": "OBLIGATION_EXPIRE_TIME",
      "inputs": [],
      "outputs": [
        {
          "name": "",
          "type": "uint256",
          "internalType": "uint256"
        }
      ],
      "stateMutability": "view"
    },
    {
      "type": "function",
      "name": "OBLIGATION_TIMELOCK_PERIOD",
      "inputs": [],
      "outputs": [
        {
          "name": "",
          "type": "uint256",
          "internalType": "uint256"
        }
      ],
      "stateMutability": "view"
    },
    {
      "type": "function",
      "name": "UPGRADE_INTERFACE_VERSION",
      "inputs": [],
      "outputs": [
        {
          "name": "",
          "type": "string",
          "internalType": "string"
        }
      ],
      "stateMutability": "view"
    },
    {
      "type": "function",
      "name": "WITHDRAWAL_EXPIRE_TIME",
      "inputs": [],
      "outputs": [
        {
          "name": "",
          "type": "uint256",
          "internalType": "uint256"
        }
      ],
      "stateMutability": "view"
    },
    {
      "type": "function",
      "name": "WITHDRAWAL_TIMELOCK_PERIOD",
      "inputs": [],
      "outputs": [
        {
          "name": "",
          "type": "uint256",
          "internalType": "uint256"
        }
      ],
      "stateMutability": "view"
    },
    {
      "type": "function",
      "name": "accountBAppStrategy",
      "inputs": [
        {
          "name": "account",
          "type": "address",
          "internalType": "address"
        },
        {
          "name": "bApp",
          "type": "address",
          "internalType": "address"
        }
      ],
      "outputs": [
        {
          "name": "strategyId",
          "type": "uint256",
          "internalType": "uint256"
        }
      ],
      "stateMutability": "view"
    },
    {
      "type": "function",
      "name": "addTokensToBApp",
      "inputs": [
        {
          "name": "bApp",
          "type": "address",
          "internalType": "address"
        },
        {
          "name": "tokens",
          "type": "address[]",
          "internalType": "address[]"
        },
        {
          "name": "sharedRiskLevels",
          "type": "uint32[]",
          "internalType": "uint32[]"
        }
      ],
      "outputs": [],
      "stateMutability": "nonpayable"
    },
    {
      "type": "function",
      "name": "bAppOwners",
      "inputs": [
        {
          "name": "bApp",
          "type": "address",
          "internalType": "address"
        }
      ],
      "outputs": [
        {
          "name": "owner",
          "type": "address",
          "internalType": "address"
        }
      ],
      "stateMutability": "view"
    },
    {
      "type": "function",
      "name": "bAppTokens",
      "inputs": [
        {
          "name": "bApp",
          "type": "address",
          "internalType": "address"
        },
        {
          "name": "token",
          "type": "address",
          "internalType": "address"
        }
      ],
      "outputs": [
        {
          "name": "value",
          "type": "uint32",
          "internalType": "uint32"
        },
        {
          "name": "isSet",
          "type": "bool",
          "internalType": "bool"
        }
      ],
      "stateMutability": "view"
    },
    {
      "type": "function",
      "name": "createObligation",
      "inputs": [
        {
          "name": "strategyId",
          "type": "uint256",
          "internalType": "uint256"
        },
        {
          "name": "bApp",
          "type": "address",
          "internalType": "address"
        },
        {
          "name": "token",
          "type": "address",
          "internalType": "address"
        },
        {
          "name": "obligationPercentage",
          "type": "uint32",
          "internalType": "uint32"
        }
      ],
      "outputs": [],
      "stateMutability": "nonpayable"
    },
    {
      "type": "function",
      "name": "createStrategy",
      "inputs": [
        {
          "name": "fee",
          "type": "uint32",
          "internalType": "uint32"
        }
      ],
      "outputs": [
        {
          "name": "strategyId",
          "type": "uint256",
          "internalType": "uint256"
        }
      ],
      "stateMutability": "nonpayable"
    },
    {
      "type": "function",
      "name": "delegateBalance",
      "inputs": [
        {
          "name": "account",
          "type": "address",
          "internalType": "address"
        },
        {
          "name": "percentage",
          "type": "uint32",
          "internalType": "uint32"
        }
      ],
      "outputs": [],
      "stateMutability": "nonpayable"
    },
    {
      "type": "function",
      "name": "delegations",
      "inputs": [
        {
          "name": "delegator",
          "type": "address",
          "internalType": "address"
        },
        {
          "name": "account",
          "type": "address",
          "internalType": "address"
        }
      ],
      "outputs": [
        {
          "name": "percentage",
          "type": "uint32",
          "internalType": "uint32"
        }
      ],
      "stateMutability": "view"
    },
    {
      "type": "function",
      "name": "depositERC20",
      "inputs": [
        {
          "name": "strategyId",
          "type": "uint256",
          "internalType": "uint256"
        },
        {
          "name": "token",
          "type": "address",
          "internalType": "contract IERC20"
        },
        {
          "name": "amount",
          "type": "uint256",
          "internalType": "uint256"
        }
      ],
      "outputs": [],
      "stateMutability": "nonpayable"
    },
    {
      "type": "function",
      "name": "depositETH",
      "inputs": [
        {
          "name": "strategyId",
          "type": "uint256",
          "internalType": "uint256"
        }
      ],
      "outputs": [],
      "stateMutability": "payable"
    },
    {
      "type": "function",
      "name": "fastUpdateObligation",
      "inputs": [
        {
          "name": "strategyId",
          "type": "uint256",
          "internalType": "uint256"
        },
        {
          "name": "bApp",
          "type": "address",
          "internalType": "address"
        },
        {
          "name": "token",
          "type": "address",
          "internalType": "address"
        },
        {
          "name": "obligationPercentage",
          "type": "uint32",
          "internalType": "uint32"
        }
      ],
      "outputs": [],
      "stateMutability": "nonpayable"
    },
    {
      "type": "function",
      "name": "fastWithdrawERC20",
      "inputs": [
        {
          "name": "strategyId",
          "type": "uint256",
          "internalType": "uint256"
        },
        {
          "name": "token",
          "type": "address",
          "internalType": "contract IERC20"
        },
        {
          "name": "amount",
          "type": "uint256",
          "internalType": "uint256"
        }
      ],
      "outputs": [],
      "stateMutability": "nonpayable"
    },
    {
      "type": "function",
      "name": "fastWithdrawETH",
      "inputs": [
        {
          "name": "strategyId",
          "type": "uint256",
          "internalType": "uint256"
        },
        {
          "name": "amount",
          "type": "uint256",
          "internalType": "uint256"
        }
      ],
      "outputs": [],
      "stateMutability": "nonpayable"
    },
    {
      "type": "function",
      "name": "finalizeFeeUpdate",
      "inputs": [
        {
          "name": "strategyId",
          "type": "uint256",
          "internalType": "uint256"
        }
      ],
      "outputs": [],
      "stateMutability": "nonpayable"
    },
    {
      "type": "function",
      "name": "finalizeUpdateObligation",
      "inputs": [
        {
          "name": "strategyId",
          "type": "uint256",
          "internalType": "uint256"
        },
        {
          "name": "bApp",
          "type": "address",
          "internalType": "address"
        },
        {
          "name": "token",
          "type": "address",
          "internalType": "address"
        }
      ],
      "outputs": [],
      "stateMutability": "nonpayable"
    },
    {
      "type": "function",
      "name": "finalizeWithdrawal",
      "inputs": [
        {
          "name": "strategyId",
          "type": "uint256",
          "internalType": "uint256"
        },
        {
          "name": "token",
          "type": "address",
          "internalType": "contract IERC20"
        }
      ],
      "outputs": [],
      "stateMutability": "nonpayable"
    },
    {
      "type": "function",
      "name": "finalizeWithdrawalETH",
      "inputs": [
        {
          "name": "strategyId",
          "type": "uint256",
          "internalType": "uint256"
        }
      ],
      "outputs": [],
      "stateMutability": "nonpayable"
    },
    {
      "type": "function",
      "name": "initialize",
      "inputs": [
        {
          "name": "owner",
          "type": "address",
          "internalType": "address"
        },
        {
          "name": "_maxFeeIncrement",
          "type": "uint32",
          "internalType": "uint32"
        }
      ],
      "outputs": [],
      "stateMutability": "nonpayable"
    },
    {
      "type": "function",
      "name": "maxFeeIncrement",
      "inputs": [],
      "outputs": [
        {
          "name": "",
          "type": "uint32",
          "internalType": "uint32"
        }
      ],
      "stateMutability": "view"
    },
    {
      "type": "function",
      "name": "obligationRequests",
      "inputs": [
        {
          "name": "strategyId",
          "type": "uint256",
          "internalType": "uint256"
        },
        {
          "name": "token",
          "type": "address",
          "internalType": "address"
        },
        {
          "name": "bApp",
          "type": "address",
          "internalType": "address"
        }
      ],
      "outputs": [
        {
          "name": "percentage",
          "type": "uint32",
          "internalType": "uint32"
        },
        {
          "name": "requestTime",
          "type": "uint256",
          "internalType": "uint256"
        }
      ],
      "stateMutability": "view"
    },
    {
      "type": "function",
      "name": "obligations",
      "inputs": [
        {
          "name": "strategyId",
          "type": "uint256",
          "internalType": "uint256"
        },
        {
          "name": "bApp",
          "type": "address",
          "internalType": "address"
        },
        {
          "name": "token",
          "type": "address",
          "internalType": "address"
        }
      ],
      "outputs": [
        {
          "name": "percentage",
          "type": "uint32",
          "internalType": "uint32"
        },
        {
          "name": "isSet",
          "type": "bool",
          "internalType": "bool"
        }
      ],
      "stateMutability": "view"
    },
    {
      "type": "function",
      "name": "optInToBApp",
      "inputs": [
        {
          "name": "strategyId",
          "type": "uint256",
          "internalType": "uint256"
        },
        {
          "name": "bApp",
          "type": "address",
          "internalType": "address"
        },
        {
          "name": "tokens",
          "type": "address[]",
          "internalType": "address[]"
        },
        {
          "name": "obligationPercentages",
          "type": "uint32[]",
          "internalType": "uint32[]"
        },
        {
          "name": "data",
          "type": "bytes",
          "internalType": "bytes"
        }
      ],
      "outputs": [],
      "stateMutability": "nonpayable"
    },
    {
      "type": "function",
      "name": "owner",
      "inputs": [],
      "outputs": [
        {
          "name": "",
          "type": "address",
          "internalType": "address"
        }
      ],
      "stateMutability": "view"
    },
    {
      "type": "function",
      "name": "proposeFeeUpdate",
      "inputs": [
        {
          "name": "strategyId",
          "type": "uint256",
          "internalType": "uint256"
        },
        {
          "name": "proposedFee",
          "type": "uint32",
          "internalType": "uint32"
        }
      ],
      "outputs": [],
      "stateMutability": "nonpayable"
    },
    {
      "type": "function",
      "name": "proposeUpdateObligation",
      "inputs": [
        {
          "name": "strategyId",
          "type": "uint256",
          "internalType": "uint256"
        },
        {
          "name": "bApp",
          "type": "address",
          "internalType": "address"
        },
        {
          "name": "token",
          "type": "address",
          "internalType": "address"
        },
        {
          "name": "obligationPercentage",
          "type": "uint32",
          "internalType": "uint32"
        }
      ],
      "outputs": [],
      "stateMutability": "nonpayable"
    },
    {
      "type": "function",
      "name": "proposeWithdrawal",
      "inputs": [
        {
          "name": "strategyId",
          "type": "uint256",
          "internalType": "uint256"
        },
        {
          "name": "token",
          "type": "address",
          "internalType": "address"
        },
        {
          "name": "amount",
          "type": "uint256",
          "internalType": "uint256"
        }
      ],
      "outputs": [],
      "stateMutability": "nonpayable"
    },
    {
      "type": "function",
      "name": "proposeWithdrawalETH",
      "inputs": [
        {
          "name": "strategyId",
          "type": "uint256",
          "internalType": "uint256"
        },
        {
          "name": "amount",
          "type": "uint256",
          "internalType": "uint256"
        }
      ],
      "outputs": [],
      "stateMutability": "nonpayable"
    },
    {
      "type": "function",
      "name": "proxiableUUID",
      "inputs": [],
      "outputs": [
        {
          "name": "",
          "type": "bytes32",
          "internalType": "bytes32"
        }
      ],
      "stateMutability": "view"
    },
    {
      "type": "function",
      "name": "registerBApp",
      "inputs": [
        {
          "name": "bApp",
          "type": "address",
          "internalType": "address"
        },
        {
          "name": "tokens",
          "type": "address[]",
          "internalType": "address[]"
        },
        {
          "name": "sharedRiskLevels",
          "type": "uint32[]",
          "internalType": "uint32[]"
        },
        {
          "name": "metadataURI",
          "type": "string",
          "internalType": "string"
        }
      ],
      "outputs": [],
      "stateMutability": "nonpayable"
    },
    {
      "type": "function",
      "name": "removeDelegatedBalance",
      "inputs": [
        {
          "name": "account",
          "type": "address",
          "internalType": "address"
        }
      ],
      "outputs": [],
      "stateMutability": "nonpayable"
    },
    {
      "type": "function",
      "name": "renounceOwnership",
      "inputs": [],
      "outputs": [],
      "stateMutability": "nonpayable"
    },
    {
      "type": "function",
      "name": "strategies",
      "inputs": [
        {
          "name": "strategyId",
          "type": "uint256",
          "internalType": "uint256"
        }
      ],
      "outputs": [
        {
          "name": "owner",
          "type": "address",
          "internalType": "address"
        },
        {
          "name": "fee",
          "type": "uint32",
          "internalType": "uint32"
        },
        {
          "name": "feeProposed",
          "type": "uint32",
          "internalType": "uint32"
        },
        {
          "name": "feeUpdateTime",
          "type": "uint256",
          "internalType": "uint256"
        }
      ],
      "stateMutability": "view"
    },
    {
      "type": "function",
      "name": "strategyTokenBalances",
      "inputs": [
        {
          "name": "strategyId",
          "type": "uint256",
          "internalType": "uint256"
        },
        {
          "name": "account",
          "type": "address",
          "internalType": "address"
        },
        {
          "name": "token",
          "type": "address",
          "internalType": "address"
        }
      ],
      "outputs": [
        {
          "name": "balance",
          "type": "uint256",
          "internalType": "uint256"
        }
      ],
      "stateMutability": "view"
    },
    {
      "type": "function",
      "name": "totalDelegatedPercentage",
      "inputs": [
        {
          "name": "delegator",
          "type": "address",
          "internalType": "address"
        }
      ],
      "outputs": [
        {
          "name": "totalPercentage",
          "type": "uint32",
          "internalType": "uint32"
        }
      ],
      "stateMutability": "view"
    },
    {
      "type": "function",
      "name": "transferOwnership",
      "inputs": [
        {
          "name": "newOwner",
          "type": "address",
          "internalType": "address"
        }
      ],
      "outputs": [],
      "stateMutability": "nonpayable"
    },
    {
      "type": "function",
      "name": "updateBAppTokens",
      "inputs": [
        {
          "name": "bApp",
          "type": "address",
          "internalType": "address"
        },
        {
          "name": "tokens",
          "type": "address[]",
          "internalType": "address[]"
        },
        {
          "name": "sharedRiskLevels",
          "type": "uint32[]",
          "internalType": "uint32[]"
        }
      ],
      "outputs": [],
      "stateMutability": "nonpayable"
    },
    {
      "type": "function",
      "name": "updateDelegatedBalance",
      "inputs": [
        {
          "name": "account",
          "type": "address",
          "internalType": "address"
        },
        {
          "name": "percentage",
          "type": "uint32",
          "internalType": "uint32"
        }
      ],
      "outputs": [],
      "stateMutability": "nonpayable"
    },
    {
      "type": "function",
      "name": "updateMetadataURI",
      "inputs": [
        {
          "name": "bApp",
          "type": "address",
          "internalType": "address"
        },
        {
          "name": "metadataURI",
          "type": "string",
          "internalType": "string"
        }
      ],
      "outputs": [],
      "stateMutability": "nonpayable"
    },
    {
      "type": "function",
      "name": "upgradeToAndCall",
      "inputs": [
        {
          "name": "newImplementation",
          "type": "address",
          "internalType": "address"
        },
        {
          "name": "data",
          "type": "bytes",
          "internalType": "bytes"
        }
      ],
      "outputs": [],
      "stateMutability": "payable"
    },
    {
      "type": "function",
      "name": "usedTokens",
      "inputs": [
        {
          "name": "strategyId",
          "type": "uint256",
          "internalType": "uint256"
        },
        {
          "name": "token",
          "type": "address",
          "internalType": "address"
        }
      ],
      "outputs": [
        {
          "name": "bAppsCounter",
          "type": "uint32",
          "internalType": "uint32"
        }
      ],
      "stateMutability": "view"
    },
    {
      "type": "function",
      "name": "withdrawalRequests",
      "inputs": [
        {
          "name": "strategyId",
          "type": "uint256",
          "internalType": "uint256"
        },
        {
          "name": "account",
          "type": "address",
          "internalType": "address"
        },
        {
          "name": "token",
          "type": "address",
          "internalType": "address"
        }
      ],
      "outputs": [
        {
          "name": "amount",
          "type": "uint256",
          "internalType": "uint256"
        },
        {
          "name": "requestTime",
          "type": "uint256",
          "internalType": "uint256"
        }
      ],
      "stateMutability": "view"
    },
    {
      "type": "event",
      "name": "BAppMetadataURIUpdated",
      "inputs": [
        {
          "name": "bAppAddress",
          "type": "address",
          "indexed": true,
          "internalType": "address"
        },
        {
          "name": "metadataURI",
          "type": "string",
          "indexed": false,
          "internalType": "string"
        }
      ],
      "anonymous": false
    },
    {
      "type": "event",
      "name": "BAppOptedInByStrategy",
      "inputs": [
        {
          "name": "strategyId",
          "type": "uint256",
          "indexed": true,
          "internalType": "uint256"
        },
        {
          "name": "bApp",
          "type": "address",
          "indexed": true,
          "internalType": "address"
        },
        {
          "name": "data",
          "type": "bytes",
          "indexed": false,
          "internalType": "bytes"
        },
        {
          "name": "tokens",
          "type": "address[]",
          "indexed": false,
          "internalType": "address[]"
        },
        {
          "name": "obligationPercentages",
          "type": "uint32[]",
          "indexed": false,
          "internalType": "uint32[]"
        }
      ],
      "anonymous": false
    },
    {
      "type": "event",
      "name": "BAppRegistered",
      "inputs": [
        {
          "name": "bAppAddress",
          "type": "address",
          "indexed": true,
          "internalType": "address"
        },
        {
          "name": "owner",
          "type": "address",
          "indexed": true,
          "internalType": "address"
        },
        {
          "name": "tokens",
          "type": "address[]",
          "indexed": false,
          "internalType": "address[]"
        },
        {
          "name": "sharedRiskLevel",
          "type": "uint32[]",
          "indexed": false,
          "internalType": "uint32[]"
        },
        {
          "name": "metadataURI",
          "type": "string",
          "indexed": false,
          "internalType": "string"
        }
      ],
      "anonymous": false
    },
    {
      "type": "event",
      "name": "BAppTokensCreated",
      "inputs": [
        {
          "name": "bAppAddress",
          "type": "address",
          "indexed": true,
          "internalType": "address"
        },
        {
          "name": "tokens",
          "type": "address[]",
          "indexed": false,
          "internalType": "address[]"
        },
        {
          "name": "sharedRiskLevels",
          "type": "uint32[]",
          "indexed": false,
          "internalType": "uint32[]"
        }
      ],
      "anonymous": false
    },
    {
      "type": "event",
      "name": "BAppTokensUpdated",
      "inputs": [
        {
          "name": "bAppAddress",
          "type": "address",
          "indexed": true,
          "internalType": "address"
        },
        {
          "name": "tokens",
          "type": "address[]",
          "indexed": false,
          "internalType": "address[]"
        },
        {
          "name": "sharedRiskLevels",
          "type": "uint32[]",
          "indexed": false,
          "internalType": "uint32[]"
        }
      ],
      "anonymous": false
    },
    {
      "type": "event",
      "name": "DelegationCreated",
      "inputs": [
        {
          "name": "delegator",
          "type": "address",
          "indexed": true,
          "internalType": "address"
        },
        {
          "name": "receiver",
          "type": "address",
          "indexed": true,
          "internalType": "address"
        },
        {
          "name": "percentage",
          "type": "uint32",
          "indexed": false,
          "internalType": "uint32"
        }
      ],
      "anonymous": false
    },
    {
      "type": "event",
      "name": "DelegationRemoved",
      "inputs": [
        {
          "name": "delegator",
          "type": "address",
          "indexed": true,
          "internalType": "address"
        },
        {
          "name": "receiver",
          "type": "address",
          "indexed": true,
          "internalType": "address"
        }
      ],
      "anonymous": false
    },
    {
      "type": "event",
      "name": "DelegationUpdated",
      "inputs": [
        {
          "name": "delegator",
          "type": "address",
          "indexed": true,
          "internalType": "address"
        },
        {
          "name": "receiver",
          "type": "address",
          "indexed": true,
          "internalType": "address"
        },
        {
          "name": "percentage",
          "type": "uint32",
          "indexed": false,
          "internalType": "uint32"
        }
      ],
      "anonymous": false
    },
    {
      "type": "event",
      "name": "Initialized",
      "inputs": [
        {
          "name": "version",
          "type": "uint64",
          "indexed": false,
          "internalType": "uint64"
        }
      ],
      "anonymous": false
    },
    {
      "type": "event",
      "name": "MaxFeeIncrementSet",
      "inputs": [
        {
          "name": "newMaxFeeIncrement",
          "type": "uint32",
          "indexed": true,
          "internalType": "uint32"
        }
      ],
      "anonymous": false
    },
    {
      "type": "event",
      "name": "ObligationCreated",
      "inputs": [
        {
          "name": "strategyId",
          "type": "uint256",
          "indexed": true,
          "internalType": "uint256"
        },
        {
          "name": "bApp",
          "type": "address",
          "indexed": true,
          "internalType": "address"
        },
        {
          "name": "token",
          "type": "address",
          "indexed": true,
          "internalType": "address"
        },
        {
          "name": "obligationPercentage",
          "type": "uint256",
          "indexed": false,
          "internalType": "uint256"
        }
      ],
      "anonymous": false
    },
    {
      "type": "event",
      "name": "ObligationUpdateProposed",
      "inputs": [
        {
          "name": "strategyId",
          "type": "uint256",
          "indexed": true,
          "internalType": "uint256"
        },
        {
          "name": "account",
          "type": "address",
          "indexed": true,
          "internalType": "address"
        },
        {
          "name": "token",
          "type": "address",
          "indexed": true,
          "internalType": "address"
        },
        {
          "name": "percentage",
          "type": "uint32",
          "indexed": false,
          "internalType": "uint32"
        },
        {
          "name": "finalizeTime",
          "type": "uint256",
          "indexed": false,
          "internalType": "uint256"
        }
      ],
      "anonymous": false
    },
    {
      "type": "event",
      "name": "ObligationUpdated",
      "inputs": [
        {
          "name": "strategyId",
          "type": "uint256",
          "indexed": true,
          "internalType": "uint256"
        },
        {
          "name": "bApp",
          "type": "address",
          "indexed": true,
          "internalType": "address"
        },
        {
          "name": "token",
          "type": "address",
          "indexed": true,
          "internalType": "address"
        },
        {
          "name": "obligationPercentage",
          "type": "uint256",
          "indexed": false,
          "internalType": "uint256"
        },
        {
          "name": "isFast",
          "type": "bool",
          "indexed": false,
          "internalType": "bool"
        }
      ],
      "anonymous": false
    },
    {
      "type": "event",
      "name": "OwnershipTransferred",
      "inputs": [
        {
          "name": "previousOwner",
          "type": "address",
          "indexed": true,
          "internalType": "address"
        },
        {
          "name": "newOwner",
          "type": "address",
          "indexed": true,
          "internalType": "address"
        }
      ],
      "anonymous": false
    },
    {
      "type": "event",
      "name": "StrategyCreated",
      "inputs": [
        {
          "name": "strategyId",
          "type": "uint256",
          "indexed": true,
          "internalType": "uint256"
        },
        {
          "name": "owner",
          "type": "address",
          "indexed": true,
          "internalType": "address"
        },
        {
          "name": "fee",
          "type": "uint32",
          "indexed": false,
          "internalType": "uint32"
        }
      ],
      "anonymous": false
    },
    {
      "type": "event",
      "name": "StrategyDeposit",
      "inputs": [
        {
          "name": "strategyId",
          "type": "uint256",
          "indexed": true,
          "internalType": "uint256"
        },
        {
          "name": "contributor",
          "type": "address",
          "indexed": true,
          "internalType": "address"
        },
        {
          "name": "token",
          "type": "address",
          "indexed": true,
          "internalType": "address"
        },
        {
          "name": "amount",
          "type": "uint256",
          "indexed": false,
          "internalType": "uint256"
        }
      ],
      "anonymous": false
    },
    {
      "type": "event",
      "name": "StrategyFeeUpdateProposed",
      "inputs": [
        {
          "name": "strategyId",
          "type": "uint256",
          "indexed": true,
          "internalType": "uint256"
        },
        {
          "name": "owner",
          "type": "address",
          "indexed": false,
          "internalType": "address"
        },
        {
          "name": "proposedFee",
          "type": "uint32",
          "indexed": false,
          "internalType": "uint32"
        },
        {
          "name": "fee",
          "type": "uint32",
          "indexed": false,
          "internalType": "uint32"
        },
        {
          "name": "expirationTime",
          "type": "uint256",
          "indexed": false,
          "internalType": "uint256"
        }
      ],
      "anonymous": false
    },
    {
      "type": "event",
      "name": "StrategyFeeUpdated",
      "inputs": [
        {
          "name": "strategyId",
          "type": "uint256",
          "indexed": true,
          "internalType": "uint256"
        },
        {
          "name": "owner",
          "type": "address",
          "indexed": false,
          "internalType": "address"
        },
        {
          "name": "fee",
          "type": "uint32",
          "indexed": false,
          "internalType": "uint32"
        },
        {
          "name": "oldFee",
          "type": "uint32",
          "indexed": false,
          "internalType": "uint32"
        }
      ],
      "anonymous": false
    },
    {
      "type": "event",
      "name": "StrategyWithdrawal",
      "inputs": [
        {
          "name": "strategyId",
          "type": "uint256",
          "indexed": true,
          "internalType": "uint256"
        },
        {
          "name": "contributor",
          "type": "address",
          "indexed": true,
          "internalType": "address"
        },
        {
          "name": "token",
          "type": "address",
          "indexed": true,
          "internalType": "address"
        },
        {
          "name": "amount",
          "type": "uint256",
          "indexed": false,
          "internalType": "uint256"
        },
        {
          "name": "isFast",
          "type": "bool",
          "indexed": false,
          "internalType": "bool"
        }
      ],
      "anonymous": false
    },
    {
      "type": "event",
      "name": "StrategyWithdrawalProposed",
      "inputs": [
        {
          "name": "strategyId",
          "type": "uint256",
          "indexed": true,
          "internalType": "uint256"
        },
        {
          "name": "account",
          "type": "address",
          "indexed": true,
          "internalType": "address"
        },
        {
          "name": "token",
          "type": "address",
          "indexed": true,
          "internalType": "address"
        },
        {
          "name": "amount",
          "type": "uint256",
          "indexed": false,
          "internalType": "uint256"
        },
        {
          "name": "finalizeTime",
          "type": "uint256",
          "indexed": false,
          "internalType": "uint256"
        }
      ],
      "anonymous": false
    },
    {
      "type": "event",
      "name": "Upgraded",
      "inputs": [
        {
          "name": "implementation",
          "type": "address",
          "indexed": true,
          "internalType": "address"
        }
      ],
      "anonymous": false
    },
    {
      "type": "error",
      "name": "AddressEmptyCode",
      "inputs": [
        {
          "name": "target",
          "type": "address",
          "internalType": "address"
        }
      ]
    },
    {
      "type": "error",
      "name": "BAppAlreadyOptedIn",
      "inputs": []
    },
    {
      "type": "error",
      "name": "BAppAlreadyRegistered",
      "inputs": []
    },
    {
      "type": "error",
      "name": "BAppNotOptedIn",
      "inputs": []
    },
    {
      "type": "error",
      "name": "DelegationAlreadyExists",
      "inputs": []
    },
    {
      "type": "error",
      "name": "DelegationDoesNotExist",
      "inputs": []
    },
    {
      "type": "error",
      "name": "DelegationExistsWithSameValue",
      "inputs": []
    },
    {
      "type": "error",
      "name": "ERC1967InvalidImplementation",
      "inputs": [
        {
          "name": "implementation",
          "type": "address",
          "internalType": "address"
        }
      ]
    },
    {
      "type": "error",
      "name": "ERC1967NonPayable",
      "inputs": []
    },
    {
      "type": "error",
      "name": "EmptyTokenList",
      "inputs": []
    },
    {
      "type": "error",
      "name": "ExceedingPercentageUpdate",
      "inputs": []
    },
    {
      "type": "error",
      "name": "FailedCall",
      "inputs": []
    },
    {
      "type": "error",
      "name": "FeeAlreadySet",
      "inputs": []
    },
    {
      "type": "error",
      "name": "FeeTimelockNotElapsed",
      "inputs": []
    },
    {
      "type": "error",
      "name": "FeeUpdateExpired",
      "inputs": []
    },
    {
      "type": "error",
      "name": "InsufficientBalance",
      "inputs": []
    },
    {
      "type": "error",
      "name": "InvalidAmount",
      "inputs": []
    },
    {
      "type": "error",
      "name": "InvalidBAppOwner",
      "inputs": [
        {
          "name": "caller",
          "type": "address",
          "internalType": "address"
        },
        {
          "name": "expectedOwner",
          "type": "address",
          "internalType": "address"
        }
      ]
    },
    {
      "type": "error",
      "name": "InvalidInitialization",
      "inputs": []
    },
    {
      "type": "error",
      "name": "InvalidMaxFeeIncrement",
      "inputs": []
    },
    {
      "type": "error",
      "name": "InvalidPercentage",
      "inputs": []
    },
    {
      "type": "error",
      "name": "InvalidPercentageIncrement",
      "inputs": []
    },
    {
      "type": "error",
      "name": "InvalidStrategyFee",
      "inputs": []
    },
    {
      "type": "error",
      "name": "InvalidStrategyOwner",
      "inputs": [
        {
          "name": "caller",
          "type": "address",
          "internalType": "address"
        },
        {
          "name": "expectedOwner",
          "type": "address",
          "internalType": "address"
        }
      ]
    },
    {
      "type": "error",
      "name": "InvalidToken",
      "inputs": []
    },
    {
      "type": "error",
      "name": "LengthsNotMatching",
      "inputs": []
    },
    {
      "type": "error",
      "name": "NoPendingFeeUpdate",
      "inputs": []
    },
    {
      "type": "error",
      "name": "NoPendingObligationUpdate",
      "inputs": []
    },
    {
      "type": "error",
      "name": "NoPendingWithdrawal",
      "inputs": []
    },
    {
      "type": "error",
      "name": "NoPendingWithdrawalETH",
      "inputs": []
    },
    {
      "type": "error",
      "name": "NotInitializing",
      "inputs": []
    },
    {
      "type": "error",
      "name": "ObligationAlreadySet",
      "inputs": []
    },
    {
      "type": "error",
      "name": "ObligationHasNotBeenCreated",
      "inputs": []
    },
    {
      "type": "error",
      "name": "ObligationTimelockNotElapsed",
      "inputs": []
    },
    {
      "type": "error",
      "name": "OwnableInvalidOwner",
      "inputs": [
        {
          "name": "owner",
          "type": "address",
          "internalType": "address"
        }
      ]
    },
    {
      "type": "error",
      "name": "OwnableUnauthorizedAccount",
      "inputs": [
        {
          "name": "account",
          "type": "address",
          "internalType": "address"
        }
      ]
    },
    {
      "type": "error",
      "name": "ReentrancyGuardReentrantCall",
      "inputs": []
    },
    {
      "type": "error",
      "name": "SafeERC20FailedOperation",
      "inputs": [
        {
          "name": "token",
          "type": "address",
          "internalType": "address"
        }
      ]
    },
    {
      "type": "error",
      "name": "SharedRiskLevelAlreadySet",
      "inputs": []
    },
    {
      "type": "error",
      "name": "TokenAlreadyAddedToBApp",
      "inputs": [
        {
          "name": "token",
          "type": "address",
          "internalType": "address"
        }
      ]
    },
    {
      "type": "error",
      "name": "TokenIsUsedByTheBApp",
      "inputs": []
    },
    {
      "type": "error",
      "name": "TokenNoTSupportedByBApp",
      "inputs": [
        {
          "name": "token",
          "type": "address",
          "internalType": "address"
        }
      ]
    },
    {
      "type": "error",
      "name": "UUPSUnauthorizedCallContext",
      "inputs": []
    },
    {
      "type": "error",
      "name": "UUPSUnsupportedProxiableUUID",
      "inputs": [
        {
          "name": "slot",
          "type": "bytes32",
          "internalType": "bytes32"
        }
      ]
    },
    {
      "type": "error",
      "name": "UpdateObligationExpired",
      "inputs": []
    },
    {
      "type": "error",
      "name": "WithdrawalExpired",
      "inputs": []
    },
    {
      "type": "error",
      "name": "WithdrawalTimelockNotElapsed",
      "inputs": []
    },
    {
      "type": "error",
      "name": "ZeroAddressNotAllowed",
      "inputs": []
    }
  ],
  "bytecode": {
    "object": "0x60a060405230608052348015610013575f5ffd5b5060015f55610020610025565b6100d7565b7ff0c57e16840df040f15088dc2f81fe391c3923bec73e23a9662efc9c229c6a00805468010000000000000000900460ff16156100755760405163f92ee8a960e01b815260040160405180910390fd5b80546001600160401b03908116146100d45780546001600160401b0319166001600160401b0390811782556040519081527fc7f505b2f371ae2175ee4913f4499e1f2633a7b5936321eed1cdaeb6115181d29060200160405180910390a15b50565b60805161460a6100fd5f395f8181613284015281816132ad015261345d015261460a5ff3fe608060405260043610610318575f3560e01c806371cabe631161019c578063aa4fc8f3116100e7578063c709fadf11610092578063e6eeb3751161006d578063e6eeb37514610a98578063f2fde38b14610ace578063f5d398a2146105d8578063fabb2c1714610aed575f5ffd5b8063c709fadf14610997578063cd11a359146109b6578063d574ea3d14610a0e575f5ffd5b8063b248e6a2116100c2578063b248e6a21461091d578063c5e4c9f91461093c578063c64814dd1461095b575f5ffd5b8063aa4fc8f31461088a578063ad3cb1cc146108a9578063b0facab3146108fe575f5ffd5b80638f4ab450116101475780639ba4a0e9116101225780639ba4a0e9146108255780639dac446314610844578063a734f06e14610863575f5ffd5b80638f4ab450146107ab57806394509df1146107ca5780639addde88146107e9575f5ffd5b8063846ae9d611610177578063846ae9d6146106e45780638a1809b4146107335780638da5cb5b1461076f575f5ffd5b806371cabe63146105d857806375b9083d146106c55780637a3c099314610628575f5ffd5b806345ca2318116102675780635358fbda116102125780635f9be8ec116101ed5780635f9be8ec14610654578063680c6c49146106735780636fb09ace14610692578063715018a6146106b1575f5ffd5b80635358fbda1461061557806356db7181146106285780635ac0a6f01461063e575f5ffd5b80634d411980116102425780634d411980146105d85780634f1ef286146105ee57806352d1902d14610601575f5ffd5b806345ca23181461053f57806349638749146105a75780634c255c97146105c3575f5ffd5b80631e8f11fb116102c75780633720bcbf116102a25780633720bcbf146104ad578063400dbdaa146104da57806343c46da9146104f9575f5ffd5b80631e8f11fb1461040a578063271ec1fd146104295780632cfa42c91461048e575f5ffd5b80630763cd5d116102f75780630763cd5d1461037b57806308867b5d1461039a5780631991d98b146103eb575f5ffd5b80624263741461031c578063021e40c61461033d578063061db6391461035c575b5f5ffd5b348015610327575f5ffd5b5061033b610336366004613de1565b610b0c565b005b348015610348575f5ffd5b5061033b610357366004613e2f565b610c1f565b348015610367575f5ffd5b5061033b610376366004613e6e565b610ed1565b348015610386575f5ffd5b5061033b610395366004613e98565b6110ae565b3480156103a5575f5ffd5b506103ce6103b4366004613eb8565b60036020525f90815260409020546001600160a01b031681565b6040516001600160a01b0390911681526020015b60405180910390f35b3480156103f6575f5ffd5b5061033b610405366004613ed3565b6111b8565b348015610415575f5ffd5b5061033b610424366004613de1565b611310565b348015610434575f5ffd5b50610472610443366004613f08565b600460209081525f928352604080842090915290825290205463ffffffff811690640100000000900460ff1682565b6040805163ffffffff90931683529015156020830152016103e2565b348015610499575f5ffd5b5061033b6104a8366004613fc5565b611431565b3480156104b8575f5ffd5b506104cc6104c736600461407f565b6115a0565b6040519081526020016103e2565b3480156104e5575f5ffd5b5061033b6104f4366004613e98565b6116a4565b348015610504575f5ffd5b5061052a610513366004613eb8565b60086020525f908152604090205463ffffffff1681565b60405163ffffffff90911681526020016103e2565b34801561054a575f5ffd5b5061058b610559366004613e2f565b600d60209081525f93845260408085208252928452828420905282529020805460019091015463ffffffff9091169082565b6040805163ffffffff90931683526020830191909152016103e2565b3480156105b2575f5ffd5b5060015461052a9063ffffffff1681565b3480156105ce575f5ffd5b5061052a61271081565b3480156105e3575f5ffd5b506104cc6201518081565b61033b6105fc3660046140ac565b61185f565b34801561060c575f5ffd5b506104cc61187a565b61033b610623366004614173565b6118a8565b348015610633575f5ffd5b506104cc62093a8081565b348015610649575f5ffd5b506104cc6206978081565b34801561065f575f5ffd5b5061033b61066e366004613eb8565b611961565b34801561067e575f5ffd5b5061033b61068d36600461418a565b611a73565b34801561069d575f5ffd5b5061033b6106ac36600461423b565b611b63565b3480156106bc575f5ffd5b5061033b611d3e565b3480156106d0575f5ffd5b5061033b6106df366004614265565b611d51565b3480156106ef575f5ffd5b506104726106fe366004613e2f565b600a60209081525f938452604080852082529284528284209052825290205463ffffffff811690640100000000900460ff1682565b34801561073e575f5ffd5b506104cc61074d366004613e2f565b600960209081525f938452604080852082529284528284209052825290205481565b34801561077a575f5ffd5b507f9016d09d72d40fdae2fd8ceac6b6234c7706214fd39c1cd1e609a0528c199300546001600160a01b03166103ce565b3480156107b6575f5ffd5b5061033b6107c5366004613ed3565b611f18565b3480156107d5575f5ffd5b5061033b6107e4366004614173565b6120f5565b3480156107f4575f5ffd5b5061052a610803366004614265565b600b60209081525f928352604080842090915290825290205463ffffffff1681565b348015610830575f5ffd5b5061033b61083f36600461423b565b612305565b34801561084f575f5ffd5b5061033b61085e366004614173565b6124cf565b34801561086e575f5ffd5b506103ce73eeeeeeeeeeeeeeeeeeeeeeeeeeeeeeeeeeeeeeee81565b348015610895575f5ffd5b5061033b6108a4366004614288565b6126aa565b3480156108b4575f5ffd5b506108f16040518060400160405280600581526020017f352e302e3000000000000000000000000000000000000000000000000000000081525081565b6040516103e2919061430a565b348015610909575f5ffd5b5061033b610918366004613ed3565b612a26565b348015610928575f5ffd5b5061033b610937366004613de1565b612ae8565b348015610947575f5ffd5b5061033b61095636600461423b565b612baf565b348015610966575f5ffd5b5061052a610975366004613f08565b600760209081525f928352604080842090915290825290205463ffffffff1681565b3480156109a2575f5ffd5b5061033b6109b1366004614288565b612d9b565b3480156109c1575f5ffd5b506109f96109d0366004613e2f565b600c60209081525f93845260408085208252928452828420905282529020805460019091015482565b604080519283526020830191909152016103e2565b348015610a19575f5ffd5b50610a64610a28366004614173565b60056020525f9081526040902080546001909101546001600160a01b0382169163ffffffff600160a01b8204811692600160c01b909204169084565b604080516001600160a01b0395909516855263ffffffff9384166020860152919092169083015260608201526080016103e2565b348015610aa3575f5ffd5b506104cc610ab2366004613f08565b600660209081525f928352604080842090915290825290205481565b348015610ad9575f5ffd5b5061033b610ae8366004613eb8565b612e7f565b348015610af8575f5ffd5b5061033b610b0736600461433f565b612ed5565b5f8481526005602052604090205484906001600160a01b03163314610b6a575f8181526005602052604090819020549051633b36f5af60e11b81523360048201526001600160a01b0390911660248201526044015b60405180910390fd5b610b7685858585612f7c565b5f858152600d602090815260408083206001600160a01b0388811685529083528184209087168085529252909120805463ffffffff191663ffffffff85161781554260018201819055909190339088907f32a2ca13a87df785f8cfb45c1a4f5dcf2f78d1017e60619b4f01b8889dbeb5c5908790610bf89062093a80906143a4565b6040805163ffffffff909316835260208301919091520160405180910390a4505050505050565b5f8381526005602052604090205483906001600160a01b03163314610c78575f8181526005602052604090819020549051633b36f5af60e11b81523360048201526001600160a01b039091166024820152604401610b61565b5f848152600d602090815260408083206001600160a01b03808816855290835281842090861684529091528120600181015481549192909163ffffffff1690829003610cf0576040517fe6b3dbb600000000000000000000000000000000000000000000000000000000815260040160405180910390fd5b62093a808360010154610d0391906143a4565b421015610d3c576040517f14bcaa6700000000000000000000000000000000000000000000000000000000815260040160405180910390fd5b6201518062093a808460010154610d5391906143a4565b610d5d91906143a4565b421115610d96576040517f1ba735e800000000000000000000000000000000000000000000000000000000815260040160405180910390fd5b63ffffffff8116158015610ddc57505f878152600a602090815260408083206001600160a01b03808b168552908352818420908916845290915290205463ffffffff1615155b15610e38575f878152600b602090815260408083206001600160a01b03891684529091528120805460019290610e1990849063ffffffff166143b7565b92506101000a81548163ffffffff021916908363ffffffff1602179055505b610e44878787846130e5565b6040805163ffffffff831681525f60208201526001600160a01b0387169133918a917f7ed6e334e2bd0df810884a75688064033c6755b26b19af0e841d2fd8eb3e1a09910160405180910390a45050505f93845250600d602090815260408085206001600160a01b0394851686528252808520929093168452528120805463ffffffff1916815560010155565b5f8281526005602052604090205482906001600160a01b03163314610f2a575f8181526005602052604090819020549051633b36f5af60e11b81523360048201526001600160a01b039091166024820152604401610b61565b61271063ffffffff83161115610f5357604051631f3b85d360e01b815260040160405180910390fd5b5f838152600560205260409020805460015463ffffffff600160a01b909204821691610f809116826143d3565b63ffffffff168463ffffffff161115610fc5576040517f018321d500000000000000000000000000000000000000000000000000000000815260040160405180910390fd5b8063ffffffff168463ffffffff160361100a576040517f35cb3e4300000000000000000000000000000000000000000000000000000000815260040160405180910390fd5b81547fffffffff00000000ffffffffffffffffffffffffffffffffffffffffffffffff16600160c01b63ffffffff86160217825561104b62093a80426143a4565b600183018190556040805133815263ffffffff8088166020830152841691810191909152606081019190915285907f3b63a47f97ea5f48e2bfc09c43c9e1cbd13984b40e6b158ac9d46c320708b8d8906080015b60405180910390a25050505050565b805f036110ce5760405163162908e360e11b815260040160405180910390fd5b5f828152600960209081526040808320338452825280832073eeeeeeeeeeeeeeeeeeeeeeeeeeeeeeeeeeeeeeee845290915290205481111561112357604051631e9acf1760e31b815260040160405180910390fd5b5f828152600c602090815260408083203380855290835281842073eeeeeeeeeeeeeeeeeeeeeeeeeeeeeeeeeeeeeeee80865293529220838155426001820181905590929085907f56aea1b44c7d84413f02920c391613f8c0b53ea5cc487c5cc27e945ee39d5ce890869061119b9062069780906143a4565b6040805192835260208301919091520160405180910390a4505050565b805f036111d85760405163162908e360e11b815260040160405180910390fd5b5f83815260096020908152604080832033845282528083206001600160a01b038616845290915290205481111561122257604051631e9acf1760e31b815260040160405180910390fd5b7fffffffffffffffffffffffff11111111111111111111111111111111111111126001600160a01b03831601611284576040517fc1ab6dc100000000000000000000000000000000000000000000000000000000815260040160405180910390fd5b5f838152600c60209081526040808320338085529083528184206001600160a01b03871680865293529220838155426001820181905590929086907f56aea1b44c7d84413f02920c391613f8c0b53ea5cc487c5cc27e945ee39d5ce89086906112f19062069780906143a4565b604080519283526020830191909152015b60405180910390a450505050565b5f8481526005602052604090205484906001600160a01b03163314611369575f8181526005602052604090819020549051633b36f5af60e11b81523360048201526001600160a01b039091166024820152604401610b61565b5f858152600a602090815260408083206001600160a01b038089168552908352818420908716845290915290205463ffffffff908116908316116113c057604051631f3b85d360e01b815260040160405180910390fd5b6113cc85858585612f7c565b6113d8858585856130e5565b6040805163ffffffff84168152600160208201526001600160a01b03808616929087169188917f7ed6e334e2bd0df810884a75688064033c6755b26b19af0e841d2fd8eb3e1a0991015b60405180910390a45050505050565b5f8881526005602052604090205488906001600160a01b0316331461148a575f8181526005602052604090819020549051633b36f5af60e11b81523360048201526001600160a01b039091166024820152604401610b61565b8584146114c3576040517f7629685500000000000000000000000000000000000000000000000000000000815260040160405180910390fd5b335f9081526006602090815260408083206001600160a01b038c1684529091529020541561151d576040517fdf93e2d400000000000000000000000000000000000000000000000000000000815260040160405180910390fd5b61152b8989898989896131ce565b335f9081526006602090815260408083206001600160a01b038c168085529252918290208b905590518a907fd20607d056707e3fa5a09eeca97524f3c944548a1d7f9efdf6e4edd8cb6ececf9061158d90879087908d908d908d908d90614499565b60405180910390a3505050505050505050565b5f61271063ffffffff831611156115e3576040517fc814a56000000000000000000000000000000000000000000000000000000000815260040160405180910390fd5b60025f81546115f1906144e1565b91829055505f81815260056020908152604091829020805463ffffffff8716600160a01b81027fffffffffffffffff00000000ffffffffffffffffffffffffffffffffffffffff339081167fffffffffffffffff000000000000000000000000000000000000000000000000909416939093171783559351938452939450929184917f89ffe22021947b1b12822a9e0d83a94a232f6ff18c4653cddd3ed900a534802d910160405180910390a350919050565b6116ac613238565b805f036116cc5760405163162908e360e11b815260040160405180910390fd5b5f828152600b6020908152604080832073eeeeeeeeeeeeeeeeeeeeeeeeeeeeeeeeeeeeeeee845290915290205463ffffffff1615611736576040517f53f9e5a200000000000000000000000000000000000000000000000000000000815260040160405180910390fd5b5f828152600960209081526040808320338452825280832073eeeeeeeeeeeeeeeeeeeeeeeeeeeeeeeeeeeeeeee845290915290205481111561178b57604051631e9acf1760e31b815260040160405180910390fd5b5f828152600960209081526040808320338452825280832073eeeeeeeeeeeeeeeeeeeeeeeeeeeeeeeeeeeeeeee8452909152812080548392906117cf9084906144f9565b9091555050604051339082156108fc029083905f818181858888f193505050501580156117fe573d5f5f3e3d5ffd5b50604080518281526001602082015273eeeeeeeeeeeeeeeeeeeeeeeeeeeeeeeeeeeeeeee91339185917f2561e0942749e18ab28030c2099acf8cea0868b12d4b28c95001ef089f7da145910160405180910390a461185b60015f55565b5050565b611867613279565b61187082613349565b61185b8282613351565b5f611883613452565b507f360894a13ba1a3210667c828492db98dca3e2076cc3735a920a3ca505d382bbc90565b345f036118c85760405163162908e360e11b815260040160405180910390fd5b5f818152600960209081526040808320338452825280832073eeeeeeeeeeeeeeeeeeeeeeeeeeeeeeeeeeeeeeee84529091528120805434929061190c9084906143a4565b909155505060405134815273eeeeeeeeeeeeeeeeeeeeeeeeeeeeeeeeeeeeeeee90339083907fda5ee8e70aeedd0bd08f006032aab739078307554b833a919e4dc24a4aa3b7289060200160405180910390a450565b335f9081526007602090815260408083206001600160a01b038516845290915281205463ffffffff16908190036119c4576040517f67dff35100000000000000000000000000000000000000000000000000000000815260040160405180910390fd5b335f8181526007602090815260408083206001600160a01b03871684528252808320805463ffffffff19169055928252600890529081208054839290611a1190849063ffffffff166143b7565b92506101000a81548163ffffffff021916908363ffffffff160217905550816001600160a01b0316336001600160a01b03167fd34d27e61da1c0024d36fb461da2b2cc55f26de3975c87a55e96d835f667462960405160405180910390a35050565b6001600160a01b038781165f908152600360205260409020541615611ac4576040517ff64dcbcd00000000000000000000000000000000000000000000000000000000815260040160405180910390fd5b6001600160a01b0387165f908152600360205260409020805473ffffffffffffffffffffffffffffffffffffffff191633179055611b0587878787876134b4565b336001600160a01b0316876001600160a01b03167f461f50f1c015f772efc8dc0c23bb5add221405708daf2b22d7caf1a607c9c327888888888888604051611b529695949392919061450c565b60405180910390a350505050505050565b63ffffffff81161580611b7d575061271063ffffffff8216115b15611b9b57604051631f3b85d360e01b815260040160405180910390fd5b335f9081526007602090815260408083206001600160a01b038616845290915290205463ffffffff9081169082168103611c01576040517f21f704fc00000000000000000000000000000000000000000000000000000000815260040160405180910390fd5b8063ffffffff165f03611c40576040517f67dff35100000000000000000000000000000000000000000000000000000000815260040160405180910390fd5b335f908152600860205260408120548390611c6290849063ffffffff166143b7565b611c6c91906143d3565b905061271063ffffffff82161115611cb0576040517f2b95e1a500000000000000000000000000000000000000000000000000000000815260040160405180910390fd5b335f8181526007602090815260408083206001600160a01b038916808552908352818420805463ffffffff1990811663ffffffff8b811691821790935587875260088652958490208054909116918816919091179055905192835292917ff2dfe72a24138b23496852de2a67b7506f5ebfe75f3086ee9c2f702ab16ba625910160405180910390a350505050565b611d466135f9565b611d4f5f61366d565b565b5f828152600c6020908152604080832033845282528083206001600160a01b0385168452909152812060018101549091819003611dba576040517f9121b84f00000000000000000000000000000000000000000000000000000000815260040160405180910390fd5b611dc762069780826143a4565b421015611e00576040517f41cb7ff500000000000000000000000000000000000000000000000000000000815260040160405180910390fd5b62015180611e1162069780836143a4565b611e1b91906143a4565b421115611e54576040517fc140b38a00000000000000000000000000000000000000000000000000000000815260040160405180910390fd5b81545f85815260096020908152604080832033845282528083206001600160a01b038816845290915281208054839290611e8f9084906144f9565b90915550505f858152600c60209081526040808320338085529083528184206001600160a01b038916808652935290832083815560010192909255611ed491836136ea565b604080518281525f60208201526001600160a01b03861691339188917f2561e0942749e18ab28030c2099acf8cea0868b12d4b28c95001ef089f7da1459101611422565b611f20613238565b805f03611f405760405163162908e360e11b815260040160405180910390fd5b5f838152600b602090815260408083206001600160a01b038616845290915290205463ffffffff1615611f9f576040517f53f9e5a200000000000000000000000000000000000000000000000000000000815260040160405180910390fd5b5f83815260096020908152604080832033845282528083206001600160a01b0386168452909152902054811115611fe957604051631e9acf1760e31b815260040160405180910390fd5b7fffffffffffffffffffffffff11111111111111111111111111111111111111126001600160a01b0383160161204b576040517fc1ab6dc100000000000000000000000000000000000000000000000000000000815260040160405180910390fd5b5f83815260096020908152604080832033845282528083206001600160a01b0386168452909152812080548392906120849084906144f9565b9091555061209e90506001600160a01b03831633836136ea565b60408051828152600160208201526001600160a01b03841691339186917f2561e0942749e18ab28030c2099acf8cea0868b12d4b28c95001ef089f7da14591015b60405180910390a46120f060015f55565b505050565b5f818152600c60209081526040808320338452825280832073eeeeeeeeeeeeeeeeeeeeeeeeeeeeeeeeeeeeeeee8452909152812060018101549091819003612169576040517f3a823e3d00000000000000000000000000000000000000000000000000000000815260040160405180910390fd5b61217662069780826143a4565b4210156121af576040517f41cb7ff500000000000000000000000000000000000000000000000000000000815260040160405180910390fd5b620151806121c062069780836143a4565b6121ca91906143a4565b421115612203576040517fc140b38a00000000000000000000000000000000000000000000000000000000815260040160405180910390fd5b81545f848152600960209081526040808320338452825280832073eeeeeeeeeeeeeeeeeeeeeeeeeeeeeeeeeeeeeeee8452909152812080548392906122499084906144f9565b90915550505f848152600c602090815260408083203380855290835281842073eeeeeeeeeeeeeeeeeeeeeeeeeeeeeeeeeeeeeeee855290925280832083815560010183905551909183156108fc02918491818181858888f193505050501580156122b5573d5f5f3e3d5ffd5b50604080518281525f602082015273eeeeeeeeeeeeeeeeeeeeeeeeeeeeeeeeeeeeeeee91339187917f2561e0942749e18ab28030c2099acf8cea0868b12d4b28c95001ef089f7da1459101611302565b63ffffffff8116158061231f575061271063ffffffff8216115b1561233d57604051631f3b85d360e01b815260040160405180910390fd5b335f9081526007602090815260408083206001600160a01b038616845290915290205463ffffffff161561239d576040517f8a32f43200000000000000000000000000000000000000000000000000000000815260040160405180910390fd5b335f90815260086020526040902054612710906123c190839063ffffffff166143d3565b63ffffffff1611156123ff576040517f2b95e1a500000000000000000000000000000000000000000000000000000000815260040160405180910390fd5b335f8181526007602090815260408083206001600160a01b03871684528252808320805463ffffffff191663ffffffff878116919091179091559383526008909152812080548493919291612456918591166143d3565b92506101000a81548163ffffffff021916908363ffffffff160217905550816001600160a01b0316336001600160a01b03167f0e7ec42e476fe6cbba0b9a18c065f08e4217c8423744dc56e9092450f6722839836040516124c3919063ffffffff91909116815260200190565b60405180910390a35050565b5f8181526005602052604090205481906001600160a01b03163314612528575f8181526005602052604090819020549051633b36f5af60e11b81523360048201526001600160a01b039091166024820152604401610b61565b5f82815260056020526040812060018101549091819003612575576040517fa678cae000000000000000000000000000000000000000000000000000000000815260040160405180910390fd5b804210156125af576040517f4c12a2e000000000000000000000000000000000000000000000000000000000815260040160405180910390fd5b6125bc62015180826143a4565b4211156125f5576040517f624f3ab100000000000000000000000000000000000000000000000000000000815260040160405180910390fd5b81547fffffffff0000000000000000ffffffffffffffffffffffffffffffffffffffff8116600160a01b63ffffffff600160c01b8404811682027fffffffff00000000ffffffffffffffffffffffffffffffffffffffffffffffff16929092178086555f6001870155604080513381529183900484166020830152919093049091169082018190529085907fcf8d1c6677cbc7a00e5cff15ddf181b2a675054e4ee7ef788d676782de10113a9060600161109f565b6001600160a01b038086165f908152600360205260409020548691163314612708576001600160a01b038181165f9081526003602052604090819020549051639249ace960e01b815233600482015291166024820152604401610b61565b5f849003612742576040517f36e7020f00000000000000000000000000000000000000000000000000000000815260040160405180910390fd5b61274e8585858561375e565b5f5b848110156129d65761278786868381811061276d5761276d614547565b90506020020160208101906127829190613eb8565b613797565b6001600160a01b0387165f908152600460205260408120908787848181106127b1576127b1614547565b90506020020160208101906127c69190613eb8565b6001600160a01b0316815260208101919091526040015f2054640100000000900460ff166128535785858281811061280057612800614547565b90506020020160208101906128159190613eb8565b6040517fa20a1d000000000000000000000000000000000000000000000000000000000081526001600160a01b039091166004820152602401610b61565b83838281811061286557612865614547565b905060200201602081019061287a919061407f565b6001600160a01b0388165f90815260046020526040812063ffffffff9290921691908888858181106128ae576128ae614547565b90506020020160208101906128c39190613eb8565b6001600160a01b0316815260208101919091526040015f205463ffffffff1603612919576040517fc5b1287600000000000000000000000000000000000000000000000000000000815260040160405180910390fd5b6129ce8787878481811061292f5761292f614547565b90506020020160208101906129449190613eb8565b86868581811061295657612956614547565b905060200201602081019061296b919061407f565b6001600160a01b039283165f9081526004602090815260408083209490951682529290925291902080547fffffffffffffffffffffffffffffffffffffffffffffffffffffff00000000001663ffffffff90921691909117640100000000179055565b600101612750565b50856001600160a01b03167feaa9ea32277ff693fe547cea2a7d14e722b4805df88ee21a7958bb4625d4bce286868686604051612a16949392919061455b565b60405180910390a2505050505050565b612a2e613238565b805f03612a4e5760405163162908e360e11b815260040160405180910390fd5b5f83815260096020908152604080832033845282528083206001600160a01b038616845290915281208054839290612a879084906143a4565b90915550612aa290506001600160a01b0383163330846137d7565b816001600160a01b0316336001600160a01b0316847fda5ee8e70aeedd0bd08f006032aab739078307554b833a919e4dc24a4aa3b728846040516120df91815260200190565b5f8481526005602052604090205484906001600160a01b03163314612b41575f8181526005602052604090819020549051633b36f5af60e11b81523360048201526001600160a01b039091166024820152604401610b61565b335f9081526006602090815260408083206001600160a01b03881684529091529020548514612b9c576040517f2762b37a00000000000000000000000000000000000000000000000000000000815260040160405180910390fd5b612ba885858585613810565b5050505050565b7ff0c57e16840df040f15088dc2f81fe391c3923bec73e23a9662efc9c229c6a00805468010000000000000000810460ff16159067ffffffffffffffff165f81158015612bf95750825b90505f8267ffffffffffffffff166001148015612c155750303b155b905081158015612c23575080155b15612c5a576040517ff92ee8a900000000000000000000000000000000000000000000000000000000815260040160405180910390fd5b84547fffffffffffffffffffffffffffffffffffffffffffffffff00000000000000001660011785558315612ca557845468ff00000000000000001916680100000000000000001785555b63ffffffff86161580612cbf575061271063ffffffff8716115b15612cf6576040517fabe9fc5e00000000000000000000000000000000000000000000000000000000815260040160405180910390fd5b612cff87613a51565b612d07613a62565b6001805463ffffffff191663ffffffff88169081179091556040517f897f70b61b8a6350248c02601bacb1a4abf66d327b52b84e9896fdf0c597711d905f90a28315612d9257845468ff000000000000000019168555604051600181527fc7f505b2f371ae2175ee4913f4499e1f2633a7b5936321eed1cdaeb6115181d29060200160405180910390a15b50505050505050565b6001600160a01b038086165f908152600360205260409020548691163314612df9576001600160a01b038181165f9081526003602052604090819020549051639249ace960e01b815233600482015291166024820152604401610b61565b5f849003612e33576040517f36e7020f00000000000000000000000000000000000000000000000000000000815260040160405180910390fd5b612e4086868686866134b4565b856001600160a01b03167fd570f1418245bccc37b087923d8fdcddfd372ea29d683356f66f1fc791949cfd86868686604051612a16949392919061455b565b612e876135f9565b6001600160a01b038116612ec9576040517f1e4fbdf70000000000000000000000000000000000000000000000000000000081525f6004820152602401610b61565b612ed28161366d565b50565b6001600160a01b038084165f908152600360205260409020548491163314612f33576001600160a01b038181165f9081526003602052604090819020549051639249ace960e01b815233600482015291166024820152604401610b61565b836001600160a01b03167f96807aa254895bb8fe8cd9fcfc49d413859a084014f5dd91faeb494e266a49df8484604051612f6e92919061458c565b60405180910390a250505050565b335f9081526006602090815260408083206001600160a01b03871684529091529020548414612fd7576040517f2762b37a00000000000000000000000000000000000000000000000000000000815260040160405180910390fd5b61271063ffffffff8216111561300057604051631f3b85d360e01b815260040160405180910390fd5b5f848152600a602090815260408083206001600160a01b038088168552908352818420908616845290915290205463ffffffff90811690821603613070576040517fc9d4141c00000000000000000000000000000000000000000000000000000000815260040160405180910390fd5b5f848152600a602090815260408083206001600160a01b0387811685529083528184209086168452909152902054640100000000900460ff166130df576040517ffab7595b00000000000000000000000000000000000000000000000000000000815260040160405180910390fd5b50505050565b5f848152600a602090815260408083206001600160a01b038088168552908352818420908616845290915290205463ffffffff1615801561312b57505f8163ffffffff16115b15613187575f848152600b602090815260408083206001600160a01b0386168452909152812080546001929061316890849063ffffffff166143d3565b92506101000a81548163ffffffff021916908363ffffffff1602179055505b5f938452600a602090815260408086206001600160a01b0395861687528252808620939094168552919091529120805463ffffffff191663ffffffff909216919091179055565b5f5b83811015612d925761323087878787858181106131ef576131ef614547565b90506020020160208101906132049190613eb8565b86868681811061321657613216614547565b905060200201602081019061322b919061407f565b613810565b6001016131d0565b60025f5403613273576040517f3ee5aeb500000000000000000000000000000000000000000000000000000000815260040160405180910390fd5b60025f55565b306001600160a01b037f000000000000000000000000000000000000000000000000000000000000000016148061331257507f00000000000000000000000000000000000000000000000000000000000000006001600160a01b03166133067f360894a13ba1a3210667c828492db98dca3e2076cc3735a920a3ca505d382bbc546001600160a01b031690565b6001600160a01b031614155b15611d4f576040517fe07c8dba00000000000000000000000000000000000000000000000000000000815260040160405180910390fd5b612ed26135f9565b816001600160a01b03166352d1902d6040518163ffffffff1660e01b8152600401602060405180830381865afa9250505080156133ab575060408051601f3d908101601f191682019092526133a8918101906145a7565b60015b6133ec576040517f4c9c8ce30000000000000000000000000000000000000000000000000000000081526001600160a01b0383166004820152602401610b61565b7f360894a13ba1a3210667c828492db98dca3e2076cc3735a920a3ca505d382bbc8114613448576040517faa1d49a400000000000000000000000000000000000000000000000000000000815260048101829052602401610b61565b6120f08383613a6a565b306001600160a01b037f00000000000000000000000000000000000000000000000000000000000000001614611d4f576040517fe07c8dba00000000000000000000000000000000000000000000000000000000815260040160405180910390fd5b6134c08484848461375e565b5f5b838110156135f1576134df85858381811061276d5761276d614547565b6001600160a01b0386165f9081526004602052604081209086868481811061350957613509614547565b905060200201602081019061351e9190613eb8565b6001600160a01b0316815260208101919091526040015f2054640100000000900460ff16156135ac5784848281811061355957613559614547565b905060200201602081019061356e9190613eb8565b6040517ff7ef46220000000000000000000000000000000000000000000000000000000081526001600160a01b039091166004820152602401610b61565b6135e9868686848181106135c2576135c2614547565b90506020020160208101906135d79190613eb8565b85858581811061295657612956614547565b6001016134c2565b505050505050565b3361362b7f9016d09d72d40fdae2fd8ceac6b6234c7706214fd39c1cd1e609a0528c199300546001600160a01b031690565b6001600160a01b031614611d4f576040517f118cdaa7000000000000000000000000000000000000000000000000000000008152336004820152602401610b61565b7f9016d09d72d40fdae2fd8ceac6b6234c7706214fd39c1cd1e609a0528c199300805473ffffffffffffffffffffffffffffffffffffffff1981166001600160a01b03848116918217845560405192169182907f8be0079c531659141344cd1fd0a4f28419497f9722a3daafe3b4186f6b6457e0905f90a3505050565b6040516001600160a01b038381166024830152604482018390526120f091859182169063a9059cbb906064015b604051602081830303815290604052915060e01b6020820180517bffffffffffffffffffffffffffffffffffffffffffffffffffffffff8381831617835250505050613abf565b8281146130df576040517f7629685500000000000000000000000000000000000000000000000000000000815260040160405180910390fd5b6001600160a01b038116612ed2576040517f8579befe00000000000000000000000000000000000000000000000000000000815260040160405180910390fd5b6040516001600160a01b0384811660248301528381166044830152606482018390526130df9186918216906323b872dd90608401613717565b6001600160a01b038381165f90815260046020908152604080832093861683529290522054640100000000900460ff16613881576040517fa20a1d000000000000000000000000000000000000000000000000000000000081526001600160a01b0383166004820152602401610b61565b61271063ffffffff821611156138aa57604051631f3b85d360e01b815260040160405180910390fd5b5f848152600a602090815260408083206001600160a01b0387811685529083528184209086168452909152902054640100000000900460ff161561391a576040517fc9d4141c00000000000000000000000000000000000000000000000000000000815260040160405180910390fd5b63ffffffff8116156139bc575f848152600b602090815260408083206001600160a01b0386168452909152812080546001929061395e90849063ffffffff166143d3565b82546101009290920a63ffffffff8181021990931691831602179091555f868152600a602090815260408083206001600160a01b03898116855290835281842090881684529091529020805463ffffffff1916918416919091179055505b5f848152600a602090815260408083206001600160a01b038781168086529184528285209087168086529084529382902080547fffffffffffffffffffffffffffffffffffffffffffffffffffffff00ffffffff16640100000000179055905163ffffffff85168152909187917fe553a2a0674dfda11ca464bdb3d023d4c72202005da98f845d2568dff73263089101611302565b613a59613b44565b612ed281613bab565b611d4f613b44565b613a7382613bb3565b6040516001600160a01b038316907fbc7cd75a20ee27fd9adebab32041f755214dbc6bffa90cc0225b39da2e5c2d3b905f90a2805115613ab7576120f08282613c4f565b61185b613cc3565b5f5f60205f8451602086015f885af180613ade576040513d5f823e3d81fd5b50505f513d91508115613af5578060011415613b02565b6001600160a01b0384163b155b156130df576040517f5274afe70000000000000000000000000000000000000000000000000000000081526001600160a01b0385166004820152602401610b61565b7ff0c57e16840df040f15088dc2f81fe391c3923bec73e23a9662efc9c229c6a005468010000000000000000900460ff16611d4f576040517fd7e6bcf800000000000000000000000000000000000000000000000000000000815260040160405180910390fd5b612e87613b44565b806001600160a01b03163b5f03613c01576040517f4c9c8ce30000000000000000000000000000000000000000000000000000000081526001600160a01b0382166004820152602401610b61565b7f360894a13ba1a3210667c828492db98dca3e2076cc3735a920a3ca505d382bbc805473ffffffffffffffffffffffffffffffffffffffff19166001600160a01b0392909216919091179055565b60605f5f846001600160a01b031684604051613c6b91906145be565b5f60405180830381855af49150503d805f8114613ca3576040519150601f19603f3d011682016040523d82523d5f602084013e613ca8565b606091505b5091509150613cb8858383613cfb565b925050505b92915050565b3415611d4f576040517fb398979f00000000000000000000000000000000000000000000000000000000815260040160405180910390fd5b606082613d1057613d0b82613d73565b613d6c565b8151158015613d2757506001600160a01b0384163b155b15613d69576040517f9996b3150000000000000000000000000000000000000000000000000000000081526001600160a01b0385166004820152602401610b61565b50805b9392505050565b805115613d835780518082602001fd5b6040517fd6bda27500000000000000000000000000000000000000000000000000000000815260040160405180910390fd5b6001600160a01b0381168114612ed2575f5ffd5b803563ffffffff81168114613ddc575f5ffd5b919050565b5f5f5f5f60808587031215613df4575f5ffd5b843593506020850135613e0681613db5565b92506040850135613e1681613db5565b9150613e2460608601613dc9565b905092959194509250565b5f5f5f60608486031215613e41575f5ffd5b833592506020840135613e5381613db5565b91506040840135613e6381613db5565b809150509250925092565b5f5f60408385031215613e7f575f5ffd5b82359150613e8f60208401613dc9565b90509250929050565b5f5f60408385031215613ea9575f5ffd5b50508035926020909101359150565b5f60208284031215613ec8575f5ffd5b8135613d6c81613db5565b5f5f5f60608486031215613ee5575f5ffd5b833592506020840135613ef781613db5565b929592945050506040919091013590565b5f5f60408385031215613f19575f5ffd5b8235613f2481613db5565b91506020830135613f3481613db5565b809150509250929050565b5f5f83601f840112613f4f575f5ffd5b50813567ffffffffffffffff811115613f66575f5ffd5b6020830191508360208260051b8501011115613f80575f5ffd5b9250929050565b5f5f83601f840112613f97575f5ffd5b50813567ffffffffffffffff811115613fae575f5ffd5b602083019150836020828501011115613f80575f5ffd5b5f5f5f5f5f5f5f5f60a0898b031215613fdc575f5ffd5b883597506020890135613fee81613db5565b9650604089013567ffffffffffffffff811115614009575f5ffd5b6140158b828c01613f3f565b909750955050606089013567ffffffffffffffff811115614034575f5ffd5b6140408b828c01613f3f565b909550935050608089013567ffffffffffffffff81111561405f575f5ffd5b61406b8b828c01613f87565b999c989b5096995094979396929594505050565b5f6020828403121561408f575f5ffd5b613d6c82613dc9565b634e487b7160e01b5f52604160045260245ffd5b5f5f604083850312156140bd575f5ffd5b82356140c881613db5565b9150602083013567ffffffffffffffff8111156140e3575f5ffd5b8301601f810185136140f3575f5ffd5b803567ffffffffffffffff81111561410d5761410d614098565b604051601f19603f601f19601f8501160116810181811067ffffffffffffffff8211171561413d5761413d614098565b604052818152828201602001871015614154575f5ffd5b816020840160208301375f602083830101528093505050509250929050565b5f60208284031215614183575f5ffd5b5035919050565b5f5f5f5f5f5f5f6080888a0312156141a0575f5ffd5b87356141ab81613db5565b9650602088013567ffffffffffffffff8111156141c6575f5ffd5b6141d28a828b01613f3f565b909750955050604088013567ffffffffffffffff8111156141f1575f5ffd5b6141fd8a828b01613f3f565b909550935050606088013567ffffffffffffffff81111561421c575f5ffd5b6142288a828b01613f87565b989b979a50959850939692959293505050565b5f5f6040838503121561424c575f5ffd5b823561425781613db5565b9150613e8f60208401613dc9565b5f5f60408385031215614276575f5ffd5b823591506020830135613f3481613db5565b5f5f5f5f5f6060868803121561429c575f5ffd5b85356142a781613db5565b9450602086013567ffffffffffffffff8111156142c2575f5ffd5b6142ce88828901613f3f565b909550935050604086013567ffffffffffffffff8111156142ed575f5ffd5b6142f988828901613f3f565b969995985093965092949392505050565b602081525f82518060208401528060208501604085015e5f604082850101526040601f19601f83011684010191505092915050565b5f5f5f60408486031215614351575f5ffd5b833561435c81613db5565b9250602084013567ffffffffffffffff811115614377575f5ffd5b61438386828701613f87565b9497909650939450505050565b634e487b7160e01b5f52601160045260245ffd5b80820180821115613cbd57613cbd614390565b63ffffffff8281168282160390811115613cbd57613cbd614390565b63ffffffff8181168382160190811115613cbd57613cbd614390565b81835281816020850137505f602082840101525f6020601f19601f840116840101905092915050565b8183526020830192505f815f5b8481101561445657813561443881613db5565b6001600160a01b031686526020958601959190910190600101614425565b5093949350505050565b8183526020830192505f815f5b848110156144565763ffffffff61448383613dc9565b168652602095860195919091019060010161446d565b606081525f6144ac60608301888a6143ef565b82810360208401526144bf818789614418565b905082810360408401526144d4818587614460565b9998505050505050505050565b5f600182016144f2576144f2614390565b5060010190565b81810381811115613cbd57613cbd614390565b606081525f61451f60608301888a614418565b8281036020840152614532818789614460565b905082810360408401526144d48185876143ef565b634e487b7160e01b5f52603260045260245ffd5b604081525f61456e604083018688614418565b8281036020840152614581818587614460565b979650505050505050565b602081525f61459f6020830184866143ef565b949350505050565b5f602082840312156145b7575f5ffd5b5051919050565b5f82518060208501845e5f92019182525091905056fea2646970667358221220b54d5daac6bae09fedb5e6e1624617395787ee5f974c42891a49d54d5655c4f764736f6c634300081c0033",
    "linkReferences": {}
  },
  "methodIdentifiers": {
    "ETH_ADDRESS()": "a734f06e",
    "FEE_EXPIRE_TIME()": "71cabe63",
    "FEE_TIMELOCK_PERIOD()": "7a3c0993",
    "MAX_PERCENTAGE()": "4c255c97",
    "OBLIGATION_EXPIRE_TIME()": "f5d398a2",
    "OBLIGATION_TIMELOCK_PERIOD()": "56db7181",
    "UPGRADE_INTERFACE_VERSION()": "ad3cb1cc",
    "WITHDRAWAL_EXPIRE_TIME()": "4d411980",
    "WITHDRAWAL_TIMELOCK_PERIOD()": "5ac0a6f0",
    "accountBAppStrategy(address,address)": "e6eeb375",
    "addTokensToBApp(address,address[],uint32[])": "c709fadf",
    "bAppOwners(address)": "08867b5d",
    "bAppTokens(address,address)": "271ec1fd",
    "createObligation(uint256,address,address,uint32)": "b248e6a2",
    "createStrategy(uint32)": "3720bcbf",
    "delegateBalance(address,uint32)": "9ba4a0e9",
    "delegations(address,address)": "c64814dd",
    "depositERC20(uint256,address,uint256)": "b0facab3",
    "depositETH(uint256)": "5358fbda",
    "fastUpdateObligation(uint256,address,address,uint32)": "1e8f11fb",
    "fastWithdrawERC20(uint256,address,uint256)": "8f4ab450",
    "fastWithdrawETH(uint256,uint256)": "400dbdaa",
    "finalizeFeeUpdate(uint256)": "9dac4463",
    "finalizeUpdateObligation(uint256,address,address)": "021e40c6",
    "finalizeWithdrawal(uint256,address)": "75b9083d",
    "finalizeWithdrawalETH(uint256)": "94509df1",
    "initialize(address,uint32)": "c5e4c9f9",
    "maxFeeIncrement()": "49638749",
    "obligationRequests(uint256,address,address)": "45ca2318",
    "obligations(uint256,address,address)": "846ae9d6",
    "optInToBApp(uint256,address,address[],uint32[],bytes)": "2cfa42c9",
    "owner()": "8da5cb5b",
    "proposeFeeUpdate(uint256,uint32)": "061db639",
    "proposeUpdateObligation(uint256,address,address,uint32)": "00426374",
    "proposeWithdrawal(uint256,address,uint256)": "1991d98b",
    "proposeWithdrawalETH(uint256,uint256)": "0763cd5d",
    "proxiableUUID()": "52d1902d",
    "registerBApp(address,address[],uint32[],string)": "680c6c49",
    "removeDelegatedBalance(address)": "5f9be8ec",
    "renounceOwnership()": "715018a6",
    "strategies(uint256)": "d574ea3d",
    "strategyTokenBalances(uint256,address,address)": "8a1809b4",
    "totalDelegatedPercentage(address)": "43c46da9",
    "transferOwnership(address)": "f2fde38b",
    "updateBAppTokens(address,address[],uint32[])": "aa4fc8f3",
    "updateDelegatedBalance(address,uint32)": "6fb09ace",
    "updateMetadataURI(address,string)": "fabb2c17",
    "upgradeToAndCall(address,bytes)": "4f1ef286",
    "usedTokens(uint256,address)": "9addde88",
    "withdrawalRequests(uint256,address,address)": "cd11a359"
  },
  "id": 46
}